:100000000C9461000C9473000C9473000C947300B6
:100010000C9473000C9473000C9473000C94730094
:100020000C9473000C9473000C9473000C94730084
:100030000C9473000C9473000C9473000C94730074
:100040000C947D010C9473000C9473000C94730059
:100050000C9473000C9473000C9473000C94730054
:100060000C9473000C94730000000000240027001F
:100070002A0000000000250028002B0000000000DE
:1000800023002600290004040404040404040202DA
:100090000202020203030303030301020408102007
:1000A0004080010204081020010204081020000012
:1000B0000008000201000003040700000000000027
:1000C000000011241FBECFEFD8E0DEBFCDBF21E07E
:1000D000A0E0B1E001C01D92AB30B207E1F70E9491
:1000E000C7010C94A8040C940000833081F028F41C
:1000F000813099F08230A9F008958730A9F08830D6
:10010000C9F08430B1F4809180008F7D03C080916C
:1001100080008F7780938000089584B58F7784BDA9
:10012000089584B58F7DFBCF8091B0008F77809349
:10013000B00008958091B0008F7DF9CFCF93DF9309
:10014000282F30E0F901E255FF4F8491F901E6567E
:10015000FF4FD491F901EA57FF4FC491CC23A1F08E
:1001600081110E947500EC2FF0E0EE0FFF1FE458A4
:10017000FF4FA591B491EC91ED2381E090E009F45B
:1001800080E0DF91CF91089580E090E0FACF1F9357
:10019000CF93DF93282F30E0F901E255FF4F849190
:1001A000F901E656FF4FD491F901EA57FF4FC49188
:1001B000CC23A9F0162F81110E947500EC2FF0E0DE
:1001C000EE0FFF1FEE58FF4FA591B4918FB7F89433
:1001D000EC91111108C0D095DE23DC938FBFDF9125
:1001E000CF911F910895DE2BF8CFCF93DF9390E04E
:1001F000FC01E656FF4F24918A579F4FFC018491E2
:100200008823D1F090E0880F991FFC01E859FF4F37
:10021000A591B491FC01EE58FF4FC591D491623085
:1002200071F49FB7F8943C91822F809583238C932F
:10023000E8812E2B28839FBFDF91CF9108958FB740
:10024000F894EC912E2B2C938FBFF6CF3FB7F894F8
:100250008091050190910601A0910701B0910801DC
:1002600026B5A89B05C02F3F19F00196A11DB11D11
:100270003FBFBA2FA92F982F8827BC01CD01620F4D
:10028000711D811D911D42E0660F771F881F991F08
:100290004A95D1F708958F929F92AF92BF92CF92D5
:1002A000DF92EF92FF924B015C010E9426016B01ED
:1002B0007C010E9426016C197D098E099F09683E08
:1002C000734081059105A8F321E0821A9108A108E5
:1002D000B10888EEC80E83E0D81EE11CF11C811421
:1002E0009104A104B10429F7FF90EF90DF90CF9023
:1002F000BF90AF909F908F9008951F920F920FB66E
:100300000F9211242F933F938F939F93AF93BF939B
:100310008091010190910201A0910301B09104012B
:100320003091000123E0230F2D3758F50196A11DD0
:10033000B11D209300018093010190930201A093CD
:100340000301B09304018091050190910601A091F1
:100350000701B09108010196A11DB11D809305010F
:1003600090930601A0930701B0930801BF91AF914C
:100370009F918F913F912F910F900FBE0F901F90E3
:10038000189526E8230F0296A11DB11DD2CF7894AF
:1003900084B5826084BD84B5816084BD85B582608A
:1003A00085BD85B5816085BD80916E00816080933B
:1003B0006E001092810080918100826080938100A4
:1003C00080918100816080938100809180008160B4
:1003D000809380008091B10084608093B10080910F
:1003E000B00081608093B00080917A008460809337
:1003F0007A0080917A00826080937A0080917A00FE
:10040000816080937A0080917A00806880937A007E
:100410001092C100C2E062E08C2F0E94F500CF5F15
:10042000C830C9F761E088E00E94F50061E088E02B
:100430000E94C70061E089E00E94F50061E089E068
:100440000E94C70061E08AE00E94F50061E08AE056
:100450000E94C70061E08BE00E94F50061E08BE044
:100460000E94C70061E08CE00E94F50061E08CE032
:100470000E94C70061E08DE00E94F50060E08DE021
:100480000E94C70061E08EE00E94F50060E08EE00F
:100490000E94C70061E08FE00E94F50060E08FE0FD
:1004A0000E94C70061E080E10E94F50060E080E109
:1004B0000E94C70061E081E10E94F50060E081E1F7
:1004C0000E94C70061E082E10E94F50060E082E1E5
:1004D0000E94C70061E083E10E94F50060E083E1D3
:1004E0000E94C70061E080E00E94F50060E080E0CB
:1004F0000E94C70061E081E00E94F50060E081E0B9
:100500000E94C700C0E0D0E001E010E082E00E945D
:100510009E000197C9F483E00E949E000197A1F418
:1005200084E00E949E00019779F485E00E949E007D
:10053000019751F486E00E949E00892B29F087E004
:100540000E949E00019711F382E00E949E00892B79
:1005500009F04AC061E08DE00E94C70061E082E1DD
:100560000E94C70060E08EE00E94C70060E083E167
:100570000E94C70060E08FE00E94C70060E080E05A
:100580000E94C70060E080E10E94C70060E081E057
:100590000E94C70060E081E10E94C70060E088E03F
:1005A0000E94C70061E089E00E94C70061E08AE024
:1005B0000E94C70061E08BE00E94C70061E08CE010
:1005C0000E94C70082E00E949E00892B39F46AE0F5
:1005D00070E080E090E00E944B01F4CF62E370E0B5
:1005E00080E090E00E944B0183E00E949E00892BF6
:1005F00009F04AC060E08DE00E94C70060E082E13F
:100600000E94C70061E08EE00E94C70061E083E1C4
:100610000E94C70060E08FE00E94C70060E080E0B9
:100620000E94C70060E080E10E94C70060E081E0B6
:100630000E94C70060E081E10E94C70061E088E09D
:100640000E94C70060E089E00E94C70061E08AE084
:100650000E94C70061E08BE00E94C70061E08CE06F
:100660000E94C70083E00E949E00892B39F46AE053
:1006700070E080E090E00E944B01F4CF62E370E014
:1006800080E090E00E944B0184E00E949E00892B54
:1006900009F04AC060E08DE00E94C70060E082E19E
:1006A0000E94C70060E08EE00E94C70060E083E126
:1006B0000E94C70061E08FE00E94C70061E080E017
:1006C0000E94C70060E080E10E94C70060E081E016
:1006D0000E94C70060E081E10E94C70061E088E0FD
:1006E0000E94C70061E089E00E94C70060E08AE0E4
:1006F0000E94C70061E08BE00E94C70061E08CE0CF
:100700000E94C70084E00E949E00892B39F46AE0B1
:1007100070E080E090E00E944B01F4CF62E370E073
:1007200080E090E00E944B0185E00E949E00892BB2
:1007300009F04AC060E08DE00E94C70060E082E1FD
:100740000E94C70060E08EE00E94C70060E083E185
:100750000E94C70060E08FE00E94C70060E080E078
:100760000E94C70061E080E10E94C70061E081E073
:100770000E94C70060E081E10E94C70061E088E05C
:100780000E94C70061E089E00E94C70061E08AE042
:100790000E94C70060E08BE00E94C70061E08CE02F
:1007A0000E94C70085E00E949E00892B39F46AE010
:1007B00070E080E090E00E944B01F4CF62E370E0D3
:1007C00080E090E00E944B0186E00E949E00892B11
:1007D000A1F58091090190910A01892B71F560E0E2
:1007E00082E10E94C70060E083E10E94C70060E0F0
:1007F00080E00E94C70060E081E00E94C70061E0E5
:1008000081E10E94C70060E08CE00E94C70086E0A2
:100810000E949E00892B39F46AE070E080E090E04D
:100820000E944B01F4CF62E370E080E090E00E9410
:100830004B0110930A010093090186E00E949E007B
:10084000892B09F040C08091090190910A0101971C
:10085000D1F58DE00E949E00682F82E10E94C700C2
:100860008EE00E949E00682F83E10E94C7008FE007
:100870000E949E00682F80E00E94C70080E10E94D5
:100880009E00682F81E00E94C70060E081E10E9425
:10089000C70061E08CE00E94C70086E00E949E00D5
:1008A000892B39F46AE070E080E090E00E944B010F
:1008B000F4CF62E370E080E090E00E944B01109280
:1008C0000A011092090187E00E949E00892BD1F550
:1008D00060E08DE00E94C70060E08EE00E94C700EB
:1008E00060E08FE00E94C70060E080E10E94C700E6
:1008F00060E081E10E94C70061E088E00E94C700DB
:1009000061E089E00E94C70061E08AE00E94C700C0
:1009100061E08BE00E94C70061E08CE00E94C700AC
:1009200087E00E949E00892B39F46AE070E080E045
:1009300090E00E944B01F4CF62E370E080E090E031
:100940000E944B01209709F4E1CD0E940000DECD0A
:04095000F894FFCF49
:00000001FF
